{
  "contractName": "DortajNFT",
  "abi": [
    {
      "inputs": [],
      "stateMutability": "nonpayable",
      "type": "constructor"
    },
    {
      "anonymous": false,
      "inputs": [
        {
          "indexed": true,
          "internalType": "uint256",
          "name": "itemId",
          "type": "uint256"
        },
        {
          "indexed": true,
          "internalType": "address",
          "name": "nftContract",
          "type": "address"
        },
        {
          "indexed": true,
          "internalType": "uint256",
          "name": "tokenId",
          "type": "uint256"
        },
        {
          "indexed": false,
          "internalType": "address",
          "name": "seller",
          "type": "address"
        },
        {
          "indexed": false,
          "internalType": "address",
          "name": "owner",
          "type": "address"
        },
        {
          "indexed": false,
          "internalType": "uint256",
          "name": "price",
          "type": "uint256"
        },
        {
          "indexed": false,
          "internalType": "bool",
          "name": "sold",
          "type": "bool"
        }
      ],
      "name": "MarketTokenMinted",
      "type": "event"
    },
    {
      "inputs": [],
      "name": "getListingPrice",
      "outputs": [
        {
          "internalType": "uint256",
          "name": "",
          "type": "uint256"
        }
      ],
      "stateMutability": "view",
      "type": "function",
      "constant": true
    },
    {
      "inputs": [
        {
          "internalType": "address",
          "name": "nftContract",
          "type": "address"
        },
        {
          "internalType": "uint256",
          "name": "tokenId",
          "type": "uint256"
        },
        {
          "internalType": "uint256",
          "name": "price",
          "type": "uint256"
        }
      ],
      "name": "makeMarketItem",
      "outputs": [],
      "stateMutability": "payable",
      "type": "function",
      "payable": true
    },
    {
      "inputs": [
        {
          "internalType": "address",
          "name": "nftContract",
          "type": "address"
        },
        {
          "internalType": "uint256",
          "name": "itemId",
          "type": "uint256"
        }
      ],
      "name": "createMarketSale",
      "outputs": [],
      "stateMutability": "payable",
      "type": "function",
      "payable": true
    },
    {
      "inputs": [],
      "name": "fetchMarketTokens",
      "outputs": [
        {
          "components": [
            {
              "internalType": "uint256",
              "name": "itemId",
              "type": "uint256"
            },
            {
              "internalType": "address",
              "name": "nftContract",
              "type": "address"
            },
            {
              "internalType": "uint256",
              "name": "tokenId",
              "type": "uint256"
            },
            {
              "internalType": "address payable",
              "name": "seller",
              "type": "address"
            },
            {
              "internalType": "address payable",
              "name": "owner",
              "type": "address"
            },
            {
              "internalType": "uint256",
              "name": "price",
              "type": "uint256"
            },
            {
              "internalType": "bool",
              "name": "sold",
              "type": "bool"
            }
          ],
          "internalType": "struct DortajNFT.MarketToken[]",
          "name": "",
          "type": "tuple[]"
        }
      ],
      "stateMutability": "view",
      "type": "function",
      "constant": true
    },
    {
      "inputs": [],
      "name": "fetchMyNFTs",
      "outputs": [
        {
          "components": [
            {
              "internalType": "uint256",
              "name": "itemId",
              "type": "uint256"
            },
            {
              "internalType": "address",
              "name": "nftContract",
              "type": "address"
            },
            {
              "internalType": "uint256",
              "name": "tokenId",
              "type": "uint256"
            },
            {
              "internalType": "address payable",
              "name": "seller",
              "type": "address"
            },
            {
              "internalType": "address payable",
              "name": "owner",
              "type": "address"
            },
            {
              "internalType": "uint256",
              "name": "price",
              "type": "uint256"
            },
            {
              "internalType": "bool",
              "name": "sold",
              "type": "bool"
            }
          ],
          "internalType": "struct DortajNFT.MarketToken[]",
          "name": "",
          "type": "tuple[]"
        }
      ],
      "stateMutability": "view",
      "type": "function",
      "constant": true
    },
    {
      "inputs": [],
      "name": "fetchItemsCreated",
      "outputs": [
        {
          "components": [
            {
              "internalType": "uint256",
              "name": "itemId",
              "type": "uint256"
            },
            {
              "internalType": "address",
              "name": "nftContract",
              "type": "address"
            },
            {
              "internalType": "uint256",
              "name": "tokenId",
              "type": "uint256"
            },
            {
              "internalType": "address payable",
              "name": "seller",
              "type": "address"
            },
            {
              "internalType": "address payable",
              "name": "owner",
              "type": "address"
            },
            {
              "internalType": "uint256",
              "name": "price",
              "type": "uint256"
            },
            {
              "internalType": "bool",
              "name": "sold",
              "type": "bool"
            }
          ],
          "internalType": "struct DortajNFT.MarketToken[]",
          "name": "",
          "type": "tuple[]"
        }
      ],
      "stateMutability": "view",
      "type": "function",
      "constant": true
    }
  ],
  "bytecode": "0x6080604052669fdf42f6e4800060045534801561001b57600080fd5b50600160008190555033600360006101000a81548173ffffffffffffffffffffffffffffffffffffffff021916908373ffffffffffffffffffffffffffffffffffffffff16021790555061193d806100746000396000f3fe608060405260043610610072576000357c01000000000000000000000000000000000000000000000000000000009004806312e8558514610077578063202e3740146100a25780637a060f56146100cd578063c23b139e146100e9578063c69bdf7514610105578063f064c32e14610130575b600080fd5b34801561008357600080fd5b5061008c61015b565b604051610099919061120a565b60405180910390f35b3480156100ae57600080fd5b506100b7610165565b6040516100c491906113ee565b60405180910390f35b6100e760048036038101906100e2919061146d565b6104c9565b005b61010360048036038101906100fe91906114c0565b610849565b005b34801561011157600080fd5b5061011a610b1e565b60405161012791906113ee565b60405180910390f35b34801561013c57600080fd5b50610145610de8565b60405161015291906113ee565b60405180910390f35b6000600454905090565b60606000610173600161114c565b905060008060005b8381101561021c573373ffffffffffffffffffffffffffffffffffffffff16600560006001846101ab919061152f565b815260200190815260200160002060040160009054906101000a900473ffffffffffffffffffffffffffffffffffffffff1673ffffffffffffffffffffffffffffffffffffffff16141561020957600183610206919061152f565b92505b808061021490611585565b91505061017b565b5060008267ffffffffffffffff811115610239576102386115ce565b5b60405190808252806020026020018201604052801561027257816020015b61025f611170565b8152602001906001900390816102575790505b50905060005b848110156104be573373ffffffffffffffffffffffffffffffffffffffff16600560006001846102a8919061152f565b815260200190815260200160002060040160009054906101000a900473ffffffffffffffffffffffffffffffffffffffff1673ffffffffffffffffffffffffffffffffffffffff1614156104ab57600060056000600184610309919061152f565b81526020019081526020016000206000015490506000600560008381526020019081526020016000209050806040518060e0016040529081600082015481526020016001820160009054906101000a900473ffffffffffffffffffffffffffffffffffffffff1673ffffffffffffffffffffffffffffffffffffffff1673ffffffffffffffffffffffffffffffffffffffff168152602001600282015481526020016003820160009054906101000a900473ffffffffffffffffffffffffffffffffffffffff1673ffffffffffffffffffffffffffffffffffffffff1673ffffffffffffffffffffffffffffffffffffffff1681526020016004820160009054906101000a900473ffffffffffffffffffffffffffffffffffffffff1673ffffffffffffffffffffffffffffffffffffffff1673ffffffffffffffffffffffffffffffffffffffff168152602001600582015481526020016006820160009054906101000a900460ff16151515158152505084868151811061048e5761048d6115fd565b5b60200260200101819052506001856104a6919061152f565b945050505b80806104b690611585565b915050610278565b508094505050505090565b6002600054141561050f576040517f08c379a000000000000000000000000000000000000000000000000000000000815260040161050690611689565b60405180910390fd5b60026000819055506000811161055a576040517f08c379a0000000000000000000000000000000000000000000000000000000008152600401610551906116f5565b60405180910390fd5b600454341461059e576040517f08c379a000000000000000000000000000000000000000000000000000000000815260040161059590611787565b60405180910390fd5b6105a8600161115a565b60006105b4600161114c565b90506040518060e001604052808281526020018573ffffffffffffffffffffffffffffffffffffffff1681526020018481526020013373ffffffffffffffffffffffffffffffffffffffff168152602001600073ffffffffffffffffffffffffffffffffffffffff16815260200183815260200160001515815250600560008381526020019081526020016000206000820151816000015560208201518160010160006101000a81548173ffffffffffffffffffffffffffffffffffffffff021916908373ffffffffffffffffffffffffffffffffffffffff1602179055506040820151816002015560608201518160030160006101000a81548173ffffffffffffffffffffffffffffffffffffffff021916908373ffffffffffffffffffffffffffffffffffffffff16021790555060808201518160040160006101000a81548173ffffffffffffffffffffffffffffffffffffffff021916908373ffffffffffffffffffffffffffffffffffffffff16021790555060a0820151816005015560c08201518160060160006101000a81548160ff0219169083151502179055509050508373ffffffffffffffffffffffffffffffffffffffff166323b872dd3330866040518463ffffffff167c01000000000000000000000000000000000000000000000000000000000281526004016107b1939291906117b6565b600060405180830381600087803b1580156107cb57600080fd5b505af11580156107df573d6000803e3d6000fd5b50505050828473ffffffffffffffffffffffffffffffffffffffff16827fcd9b0dfebab7db4dbe70606f69fadc8e987e7c80a65410f0bb5ae8bd72dabba733600087600060405161083394939291906117fc565b60405180910390a4506001600081905550505050565b6002600054141561088f576040517f08c379a000000000000000000000000000000000000000000000000000000000815260040161088690611689565b60405180910390fd5b600260008190555060006005600083815260200190815260200160002060050154905060006005600084815260200190815260200160002060020154905081341461090f576040517f08c379a0000000000000000000000000000000000000000000000000000000008152600401610906906118b3565b60405180910390fd5b6005600084815260200190815260200160002060030160009054906101000a900473ffffffffffffffffffffffffffffffffffffffff1673ffffffffffffffffffffffffffffffffffffffff166108fc349081150290604051600060405180830381858888f1935050505015801561098b573d6000803e3d6000fd5b508373ffffffffffffffffffffffffffffffffffffffff166323b872dd3033846040518463ffffffff167c01000000000000000000000000000000000000000000000000000000000281526004016109e5939291906117b6565b600060405180830381600087803b1580156109ff57600080fd5b505af1158015610a13573d6000803e3d6000fd5b50505050336005600085815260200190815260200160002060040160006101000a81548173ffffffffffffffffffffffffffffffffffffffff021916908373ffffffffffffffffffffffffffffffffffffffff16021790555060016005600085815260200190815260200160002060060160006101000a81548160ff021916908315150217905550610aa5600261115a565b600360009054906101000a900473ffffffffffffffffffffffffffffffffffffffff1673ffffffffffffffffffffffffffffffffffffffff166108fc6004549081150290604051600060405180830381858888f19350505050158015610b0f573d6000803e3d6000fd5b50505060016000819055505050565b60606000610b2c600161114c565b90506000610b3a600261114c565b610b44600161114c565b610b4e91906118d3565b90506000808267ffffffffffffffff811115610b6d57610b6c6115ce565b5b604051908082528060200260200182016040528015610ba657816020015b610b93611170565b815260200190600190039081610b8b5790505b50905060005b84811015610ddd57600073ffffffffffffffffffffffffffffffffffffffff1660056000600184610bdd919061152f565b815260200190815260200160002060040160009054906101000a900473ffffffffffffffffffffffffffffffffffffffff1673ffffffffffffffffffffffffffffffffffffffff161415610dca576000600182610c3a919061152f565b90506000600560008381526020019081526020016000209050806040518060e0016040529081600082015481526020016001820160009054906101000a900473ffffffffffffffffffffffffffffffffffffffff1673ffffffffffffffffffffffffffffffffffffffff1673ffffffffffffffffffffffffffffffffffffffff168152602001600282015481526020016003820160009054906101000a900473ffffffffffffffffffffffffffffffffffffffff1673ffffffffffffffffffffffffffffffffffffffff1673ffffffffffffffffffffffffffffffffffffffff1681526020016004820160009054906101000a900473ffffffffffffffffffffffffffffffffffffffff1673ffffffffffffffffffffffffffffffffffffffff1673ffffffffffffffffffffffffffffffffffffffff168152602001600582015481526020016006820160009054906101000a900460ff161515151581525050848681518110610dad57610dac6115fd565b5b6020026020010181905250600185610dc5919061152f565b945050505b8080610dd590611585565b915050610bac565b508094505050505090565b60606000610df6600161114c565b905060008060005b83811015610e9f573373ffffffffffffffffffffffffffffffffffffffff1660056000600184610e2e919061152f565b815260200190815260200160002060030160009054906101000a900473ffffffffffffffffffffffffffffffffffffffff1673ffffffffffffffffffffffffffffffffffffffff161415610e8c57600183610e89919061152f565b92505b8080610e9790611585565b915050610dfe565b5060008267ffffffffffffffff811115610ebc57610ebb6115ce565b5b604051908082528060200260200182016040528015610ef557816020015b610ee2611170565b815260200190600190039081610eda5790505b50905060005b84811015611141573373ffffffffffffffffffffffffffffffffffffffff1660056000600184610f2b919061152f565b815260200190815260200160002060030160009054906101000a900473ffffffffffffffffffffffffffffffffffffffff1673ffffffffffffffffffffffffffffffffffffffff16141561112e57600060056000600184610f8c919061152f565b81526020019081526020016000206000015490506000600560008381526020019081526020016000209050806040518060e0016040529081600082015481526020016001820160009054906101000a900473ffffffffffffffffffffffffffffffffffffffff1673ffffffffffffffffffffffffffffffffffffffff1673ffffffffffffffffffffffffffffffffffffffff168152602001600282015481526020016003820160009054906101000a900473ffffffffffffffffffffffffffffffffffffffff1673ffffffffffffffffffffffffffffffffffffffff1673ffffffffffffffffffffffffffffffffffffffff1681526020016004820160009054906101000a900473ffffffffffffffffffffffffffffffffffffffff1673ffffffffffffffffffffffffffffffffffffffff1673ffffffffffffffffffffffffffffffffffffffff168152602001600582015481526020016006820160009054906101000a900460ff161515151581525050848681518110611111576111106115fd565b5b6020026020010181905250600185611129919061152f565b945050505b808061113990611585565b915050610efb565b508094505050505090565b600081600001549050919050565b6001816000016000828254019250508190555050565b6040518060e0016040528060008152602001600073ffffffffffffffffffffffffffffffffffffffff16815260200160008152602001600073ffffffffffffffffffffffffffffffffffffffff168152602001600073ffffffffffffffffffffffffffffffffffffffff168152602001600081526020016000151581525090565b6000819050919050565b611204816111f1565b82525050565b600060208201905061121f60008301846111fb565b92915050565b600081519050919050565b600082825260208201905092915050565b6000819050602082019050919050565b61125a816111f1565b82525050565b600073ffffffffffffffffffffffffffffffffffffffff82169050919050565b600061128b82611260565b9050919050565b61129b81611280565b82525050565b60006112ac82611260565b9050919050565b6112bc816112a1565b82525050565b60008115159050919050565b6112d7816112c2565b82525050565b60e0820160008201516112f36000850182611251565b5060208201516113066020850182611292565b5060408201516113196040850182611251565b50606082015161132c60608501826112b3565b50608082015161133f60808501826112b3565b5060a082015161135260a0850182611251565b5060c082015161136560c08501826112ce565b50505050565b600061137783836112dd565b60e08301905092915050565b6000602082019050919050565b600061139b82611225565b6113a58185611230565b93506113b083611241565b8060005b838110156113e15781516113c8888261136b565b97506113d383611383565b9250506001810190506113b4565b5085935050505092915050565b600060208201905081810360008301526114088184611390565b905092915050565b600080fd5b61141e81611280565b811461142957600080fd5b50565b60008135905061143b81611415565b92915050565b61144a816111f1565b811461145557600080fd5b50565b60008135905061146781611441565b92915050565b60008060006060848603121561148657611485611410565b5b60006114948682870161142c565b93505060206114a586828701611458565b92505060406114b686828701611458565b9150509250925092565b600080604083850312156114d7576114d6611410565b5b60006114e58582860161142c565b92505060206114f685828601611458565b9150509250929050565b7f4e487b7100000000000000000000000000000000000000000000000000000000600052601160045260246000fd5b600061153a826111f1565b9150611545836111f1565b9250827fffffffffffffffffffffffffffffffffffffffffffffffffffffffffffffffff0382111561157a57611579611500565b5b828201905092915050565b6000611590826111f1565b91507fffffffffffffffffffffffffffffffffffffffffffffffffffffffffffffffff8214156115c3576115c2611500565b5b600182019050919050565b7f4e487b7100000000000000000000000000000000000000000000000000000000600052604160045260246000fd5b7f4e487b7100000000000000000000000000000000000000000000000000000000600052603260045260246000fd5b600082825260208201905092915050565b7f5265656e7472616e637947756172643a207265656e7472616e742063616c6c00600082015250565b6000611673601f8361162c565b915061167e8261163d565b602082019050919050565b600060208201905081810360008301526116a281611666565b9050919050565b7f5072696365206d757374206265206174206c65617374206f6e65207765690000600082015250565b60006116df601e8361162c565b91506116ea826116a9565b602082019050919050565b6000602082019050818103600083015261170e816116d2565b9050919050565b7f5072696365206d75737420626520657175616c20746f206c697374696e67207060008201527f7269636500000000000000000000000000000000000000000000000000000000602082015250565b600061177160248361162c565b915061177c82611715565b604082019050919050565b600060208201905081810360008301526117a081611764565b9050919050565b6117b081611280565b82525050565b60006060820190506117cb60008301866117a7565b6117d860208301856117a7565b6117e560408301846111fb565b949350505050565b6117f6816112c2565b82525050565b600060808201905061181160008301876117a7565b61181e60208301866117a7565b61182b60408301856111fb565b61183860608301846117ed565b95945050505050565b7f506c65617365207375626d6974207468652061736b696e67207072696365206960008201527f6e206f7264657220746f20636f6e74696e756500000000000000000000000000602082015250565b600061189d60338361162c565b91506118a882611841565b604082019050919050565b600060208201905081810360008301526118cc81611890565b9050919050565b60006118de826111f1565b91506118e9836111f1565b9250828210156118fc576118fb611500565b5b82820390509291505056fea2646970667358221220d385c3fc8746d7add32b68dfc2a95627c4037770a875cf15e7da46b619ef4be464736f6c634300080a0033",
  "immutableReferences": {},
  "source": "// SPDX-License-Identifier: MIT\r\npragma solidity >=0.4.22 <0.9.0;\r\n\r\nimport \"@openzeppelin/contracts/token/ERC721/ERC721.sol\";\r\nimport \"@openzeppelin/contracts/security/ReentrancyGuard.sol\";\r\nimport \"@openzeppelin/contracts/utils/Counters.sol\";\r\n\r\ncontract DortajNFT is ReentrancyGuard {\r\n    using Counters for Counters.Counter;\r\n\r\n    /* number of items minting, number of transactions, tokens that have not been sold\r\n     keep track of tokens total number - tokenId\r\n     arrays need to know the length - help to keep track for arrays */\r\n\r\n    Counters.Counter private _tokenIds;\r\n    Counters.Counter private _tokensSold;\r\n\r\n    // determine who is the owner of the contract\r\n    // charge a listing fee so the owner makes a commission\r\n\r\n    address payable owner;\r\n    // we are deploying to matic the API is the same so you can use ether the same as matic\r\n    // they both have 18 decimal\r\n    // 0.045 is in the cents\r\n    uint256 listingPrice = 0.045 ether;\r\n\r\n    constructor() {\r\n        //set the owner\r\n        owner = payable(msg.sender);\r\n    }\r\n\r\n    // structs can act like objects\r\n\r\n    struct MarketToken {\r\n        uint256 itemId;\r\n        address nftContract;\r\n        uint256 tokenId;\r\n        address payable seller;\r\n        address payable owner;\r\n        uint256 price;\r\n        bool sold;\r\n    }\r\n\r\n    // tokenId return which MarketToken -  fetch which one it is\r\n\r\n    mapping(uint256 => MarketToken) private idToMarketToken;\r\n\r\n    // listen to events from front end applications\r\n    event MarketTokenMinted(\r\n        uint256 indexed itemId,\r\n        address indexed nftContract,\r\n        uint256 indexed tokenId,\r\n        address seller,\r\n        address owner,\r\n        uint256 price,\r\n        bool sold\r\n    );\r\n\r\n    // get the listing price\r\n    function getListingPrice() public view returns (uint256) {\r\n        return listingPrice;\r\n    }\r\n\r\n    // two functions to interact with contract\r\n    // 1. create a market item to put it up for sale\r\n    // 2. create a market sale for buying and selling between parties\r\n\r\n    function makeMarketItem(\r\n        address nftContract,\r\n        uint256 tokenId,\r\n        uint256 price\r\n    ) public payable nonReentrant {\r\n        // nonReentrant is a modifier to prevent reentry attack\r\n\r\n        require(price > 0, \"Price must be at least one wei\");\r\n        require(\r\n            msg.value == listingPrice,\r\n            \"Price must be equal to listing price\"\r\n        );\r\n\r\n        _tokenIds.increment();\r\n        uint256 itemId = _tokenIds.current();\r\n\r\n        //putting it up for sale - bool - no owner\r\n        idToMarketToken[itemId] = MarketToken(\r\n            itemId,\r\n            nftContract,\r\n            tokenId,\r\n            payable(msg.sender),\r\n            payable(address(0)),\r\n            price,\r\n            false\r\n        );\r\n\r\n        // NFT transaction\r\n        IERC721(nftContract).transferFrom(msg.sender, address(this), tokenId);\r\n\r\n        emit MarketTokenMinted(\r\n            itemId,\r\n            nftContract,\r\n            tokenId,\r\n            msg.sender,\r\n            address(0),\r\n            price,\r\n            false\r\n        );\r\n    }\r\n\r\n    // function to conduct transactions and market sales\r\n\r\n    function createMarketSale(address nftContract, uint256 itemId)\r\n        public\r\n        payable\r\n        nonReentrant\r\n    {\r\n        uint256 price = idToMarketToken[itemId].price;\r\n        uint256 tokenId = idToMarketToken[itemId].tokenId;\r\n\r\n        require(\r\n            msg.value == price,\r\n            \"Please submit the asking price in order to continue\"\r\n        );\r\n\r\n        // transfer the amount to the seller\r\n        idToMarketToken[itemId].seller.transfer(msg.value);\r\n        // transfer the token from contract address to the buyer\r\n        IERC721(nftContract).transferFrom(address(this), msg.sender, tokenId);\r\n        idToMarketToken[itemId].owner = payable(msg.sender);\r\n        idToMarketToken[itemId].sold = true;\r\n        _tokensSold.increment();\r\n\r\n        payable(owner).transfer(listingPrice);\r\n    }\r\n\r\n    // function to fetchMarketItems - minting, buying ans selling\r\n    // return the number of unsold items\r\n\r\n    function fetchMarketTokens() public view returns (MarketToken[] memory) {\r\n        uint256 itemCount = _tokenIds.current();\r\n        uint256 unsoldItemCount = _tokenIds.current() - _tokensSold.current();\r\n        uint256 currentIndex = 0;\r\n\r\n        // looping over the number of items created (if number has not been sold populate the array)\r\n        MarketToken[] memory items = new MarketToken[](unsoldItemCount);\r\n        for (uint256 i = 0; i < itemCount; i++) {\r\n            if (idToMarketToken[i + 1].owner == address(0)) {\r\n                uint256 currentId = i + 1;\r\n                MarketToken storage currentItem = idToMarketToken[currentId];\r\n                items[currentIndex] = currentItem;\r\n                currentIndex += 1;\r\n            }\r\n        }\r\n        return items;\r\n    }\r\n\r\n    // return nfts that the user has purchased\r\n\r\n    function fetchMyNFTs() public view returns (MarketToken[] memory) {\r\n        uint256 totalItemCount = _tokenIds.current();\r\n        // a second counter for each individual user\r\n        uint256 itemCount = 0;\r\n        uint256 currentIndex = 0;\r\n\r\n        for (uint256 i = 0; i < totalItemCount; i++) {\r\n            if (idToMarketToken[i + 1].owner == msg.sender) {\r\n                itemCount += 1;\r\n            }\r\n        }\r\n\r\n        // second loop to loop through the amount you have purchased with itemcount\r\n        // check to see if the owner address is equal to msg.sender\r\n\r\n        MarketToken[] memory items = new MarketToken[](itemCount);\r\n        for (uint256 i = 0; i < totalItemCount; i++) {\r\n            if (idToMarketToken[i + 1].owner == msg.sender) {\r\n                uint256 currentId = idToMarketToken[i + 1].itemId;\r\n                // current array\r\n                MarketToken storage currentItem = idToMarketToken[currentId];\r\n                items[currentIndex] = currentItem;\r\n                currentIndex += 1;\r\n            }\r\n        }\r\n        return items;\r\n    }\r\n\r\n    // function for returning an array of minted nfts\r\n    function fetchItemsCreated() public view returns (MarketToken[] memory) {\r\n        // instead of .owner it will be the .seller\r\n        uint256 totalItemCount = _tokenIds.current();\r\n        uint256 itemCount = 0;\r\n        uint256 currentIndex = 0;\r\n\r\n        for (uint256 i = 0; i < totalItemCount; i++) {\r\n            if (idToMarketToken[i + 1].seller == msg.sender) {\r\n                itemCount += 1;\r\n            }\r\n        }\r\n\r\n        // second loop to loop through the amount you have purchased with itemcount\r\n        // check to see if the owner address is equal to msg.sender\r\n\r\n        MarketToken[] memory items = new MarketToken[](itemCount);\r\n        for (uint256 i = 0; i < totalItemCount; i++) {\r\n            if (idToMarketToken[i + 1].seller == msg.sender) {\r\n                uint256 currentId = idToMarketToken[i + 1].itemId;\r\n                MarketToken storage currentItem = idToMarketToken[currentId];\r\n                items[currentIndex] = currentItem;\r\n                currentIndex += 1;\r\n            }\r\n        }\r\n        return items;\r\n    }\r\n}\r\n",
  "sourcePath": "C:\\Projects\\NFTMarketPlace\\contracts\\DortajNFT.sol",
  "compiler": {
    "name": "solc",
    "version": "0.8.10+commit.fc410830.Emscripten.clang"
  },
  "schemaVersion": "3.4.3",
  "updatedAt": "2022-03-10T08:51:56.084Z",
  "networkType": "ethereum",
  "devdoc": {
    "kind": "dev",
    "methods": {},
    "version": 1
  },
  "userdoc": {
    "kind": "user",
    "methods": {},
    "version": 1
  }
}